8=FIX.4.2^A9=0^A35=A^A10=000^A