8=FIX.4.2|9=65|35=D|49=CLIENT|56=SERVER|11=ORD1|55=AAPL|54=1|38=100|40=2|44=150.25|10=123|