8=FIX.4.4|9=72|35=8|49=SERVER|56=CLIENT|37=EXEC1|17=E1|150=0|39=0|55=MSFT|54=1|38=50|14=0|6=0|10=200|