2024-03-24 09:15:00.123 INFO  Session connecting to counterparty TESTSELL1

8=FIX.4.4|9=75|35=A|34=1092|49=TESTBUY1|52=20180920-18:24:59.643|56=TESTSELL1|98=0|108=60|10=178
2024-03-24 09:15:02.000 DEBUG heartbeat interval negotiated: 60s
8=FIX.4.4|9=63|35=5|34=1091|49=TESTBUY1|52=20180920-18:24:58.675|56=TESTSELL1|10=138

# operator note: the next line is an application log that embeds a FIX message
2024-03-24 09:15:05.000 INFO  raw=8=FIX.4.4|9=148|35=D|34=1079|49=TESTBUY1|52=20180920-18:14:19.000|56=TESTSELL1|11=ORDER-X|38=100|40=1|54=1|55=AAPL|60=20180920-18:14:19.000|10=000
8=FIX.4.4|9=148|35=D|34=1080|49=TESTBUY1|52=20180920-18:14:19.508|56=TESTSELL1|11=636730640278898634|15=USD|21=2|38=7000|40=1|54=1|55=MSFT|60=20180920-18:14:19.492|10=092
2024-03-24 09:16:00.000 INFO  Session disconnected
