8=FIX.4.2|9=163|35=D|34=972|49=TESTBUY3|52=20190206-16:25:10.403|56=TESTSELL3|11=141636850670842269979|21=2|38=100|40=1|54=1|55=AAPL|60=20190206-16:25:08.968|207=TO|6000=TEST1234|10=106
8=FIX.4.2|9=271|35=8|34=974|49=TESTSELL3|52=20190206-16:26:09.059|56=TESTBUY3|6=174.51|11=141636850670842269979|14=100|17=36368506716843579792|20=0|31=174.51|32=100|37=10054483|38=100|39=2|54=1|55=AAPL|150=2|151=0|10=194
8=FIX.4.2|9=154|35=F|34=944|49=TESTBUY4|52=20260324-15:48:58.329|56=TESTSELL4|41=9639099641173096676|11=6639099641381204755|55=MSFT|54=1|38=1500|60=20260324-15:48:58.120|10=195
8=FIX.4.2|9=170|35=G|34=993|49=TESTBUY4|52=20260324-16:37:26.192|56=TESTSELL4|41=1363909966930199451|11=7639099670461883708|55=MSFT|54=1|38=1200|40=1|21=2|59=0|60=20260324-16:37:26.188|10=125
8=FIX.4.2|9=706|35=J|34=525|49=MYOMS|52=20230625-17:09:44|56=BROKER|55=[N/A]|48=US85227SAJ503|22=4|70=3739:20230625:65667:5:0|71=0|54=1|53=200000|6=92.951|159=52430.56|118=1911430.567|15=USD|75=20230625|64=20230628|73=1|11=23847620SD|37=ORDER:23434625:65667:5|38=200000|78=2|79=US1|80=1370000|153=92.95|154=1309329.93|79=US2|80=630000|153=92.95|154=602100.63|124=1|32=200000|31=92.95|10=195
8=FIX.4.2|9=127|35=P|34=936|49=TESTSELL3|52=20260324-15:45:13.992|56=TESTBUY3|60=20260324-15:45:13.992|70=3639096067028819307|75=20230625|87=0|10=041
8=FIX.4.2|9=74|35=A|34=978|49=TESTSELL3|52=20190206-16:29:19.208|56=TESTBUY3|98=0|108=60|10=137
8=FIX.4.2|9=62|35=5|34=977|49=TESTSELL3|52=20190206-16:28:51.518|56=TESTBUY3|10=092
