8=FIX.4.4|9=148|35=D|34=1080|49=TESTBUY1|52=20180920-18:14:19.508|56=TESTSELL1|11=636730640278898634|15=USD|21=2|38=7000|40=1|54=1|55=MSFT|60=20180920-18:14:19.492|10=092
8=FIX.4.4|9=289|35=8|34=1090|49=TESTSELL1|52=20180920-18:23:53.671|56=TESTBUY1|6=113.35|11=636730640278898634|14=3500|15=USD|17=20636730646335310000|31=113.35|32=3500|37=20636730646335310000|38=7000|39=1|54=1|55=MSFT|150=F|151=3500|10=151
8=FIX.4.4|9=168|35=F|34=941|49=TESTBUY5|52=20260324-15:48:09.239|56=FIXSIM|41=7639099640711117266|11=5639099640892351941|55=INTC|54=2|38=1000|60=20260324-15:48:09.235|10=244
8=FIX.4.4|9=167|35=G|34=993|49=TESTBUY5|52=20260324-16:37:40.694|56=FIXSIM|41=1263909966920544578|11=8639099670606720316|55=MSFT|54=1|38=1200|40=1|21=1|59=0|60=20260324-16:37:40.672|10=169
8=FIX.4.4|9=427|35=J|34=261|49=MYOMS|52=20251019-19:38:07.929|56=BLOOM|55=T 1 1/8 06/15/18|48=912828XF2|22=1|70=0000620251019|71=0|626=1|54=1|53=300000|6=100.6171875|15=USD|120=USD|60=20251019-19:38:01|75=20251019|64=20251020|73=1|11=0000120151019|78=1|79=USFIX3|80=300000|153=100.6171875|154=303022.671|124=1|17=242:6432:342|32=300000|31=100.6171875|423=1|453=1|448=9001|447=C|452=1|10=237
8=FIX.4.4|9=127|35=P|34=698|49=TESTSELL1|52=20260324-15:44:11.705|56=TESTBUY1|60=20260324-15:44:11.705|70=2639096067028819307|75=20251019|87=0|10=021
8=FIX.4.4|9=75|35=A|34=1092|49=TESTBUY1|52=20180920-18:24:59.643|56=TESTSELL1|98=0|108=60|10=178
8=FIX.4.4|9=63|35=5|34=1091|49=TESTBUY1|52=20180920-18:24:58.675|56=TESTSELL1|10=138
