8=FIX.4.4|9=0|35=W|49=SENDER|56=TARGET|34=5|52=20240101-12:00:00.000|55=EUR/USD|268=2|269=0|270=1.10500|271=1000000|269=1|270=1.10520|271=1000000|10=000
8=FIX.4.4|9=0|35=X|49=SENDER|56=TARGET|34=6|52=20240101-12:00:01.000|268=2|279=0|269=0|55=EUR/USD|270=1.10499|271=2000000|279=0|269=1|55=EUR/USD|270=1.10521|271=2000000|10=000
8=FIX.4.4|9=0|35=8|49=SELL|56=BUY|34=7|52=20240101-12:00:02.000|37=ORD1|11=CL1|17=EX1|150=F|39=1|55=EUR/USD|54=1|151=0|14=1000000|6=1.10500|453=2|448=BRK1|447=D|452=1|448=CUST1|447=D|452=3|10=000
