8=FIX.4.4|9=0|35=h|49=FXCM|56=CLIENT|34=2|52=20240101-12:00:00.000|336=FXCM|340=2|55=EUR/USD|9001=5|9002=0.0001|9003=0.64|9004=-0.81|10=000
8=FIX.4.4|9=0|35=W|49=FXCM|56=CLIENT|34=3|52=20240101-12:00:01.000|55=EUR/USD|268=2|269=0|270=1.10500|271=1000000|269=1|270=1.10520|271=1000000|10=000
8=FIX.4.4|9=0|35=AP|49=FXCM|56=CLIENT|34=4|52=20240101-12:00:02.000|721=POS123|710=PR1|55=EUR/USD|702=1|703=TQ|704=100000|753=1|707=PNL|708=250.50|10=000
